:060000000A128A110C280F
:10000800FE00030EF6000A08F7000A128A111828E3
:100018000A128A110F28F001F101F201F301F4012B
:1000280083010A128A114B28831203130C1C1D2802
:100038001E2830280130F5007508F40714307406BE
:10004800031D272828282B2801308606F4013C3078
:100058008F00AF308E000C1077088A00760E830070
:10006800FE0E7E0E09003C30831203138F00AF3062
:100078008E00901010129012061410148316031399
:100088000C14831203130C100B178B17080083161C
:100098000313061083120313061014300A128A1170
:0E00A80037200A128A1157280A128A110C28D2
:08400000FF3FFF3FFF3FFF3FC0
:02400E00F23F7F
:00000001FF
